:020000020000fc
:0100000000ff
:0100010003fb
:0100020003fa
:0100030003f9
:0100040003f8
:0100050001f9
:0100060001f8
:0100070000f8
:0100080003f4
:0100090000f6
:01000a0002f3
:01000b0002f2
:01000c0002f1
:01000d0002f0
:01000e0003ee
:01000f0002ee
:0100100003ec
:0100110000ee
:0100120003ea
:0100130001eb
:0100140003e8
:0100150003e7
:0100160001e8
:0100170001e7
:0100180000e7
:0100190001e5
:01001a0003e2
:01001b0000e4
:01001c0001e2
:01001d0002e0
:01001e0001e0
:01001f0001df
:0100200000df
:0100210001dd
:0100220001dc
:0100230002da
:0100240002d9
:0100250000da
:0100260001d8
:0100270000d8
:0100280000d7
:0100290003d3
:01002a0003d2
:01002b0001d3
:01002c0000d3
:01002d0000d2
:01002e0001d0
:01002f0003cd
:0100300000cf
:0100310003cb
:0100320000cd
:0100330003c9
:0100340001ca
:0100350000ca
:0100360000c9
:0100370000c8
:0100380003c4
:0100390000c6
:01003a0001c4
:01003b0003c1
:01003c0000c3
:01003d0002c0
:01003e0000c1
:01003f0000c0
:0100400003bc
:0100410000be
:0100420002bb
:0100430002ba
:0100440002b9
:0100450001b9
:0100460000b9
:0100470000b8
:0100480003b4
:0100490000b6
:01004a0001b4
:01004b0002b2
:01004c0003b0
:01004d0003af
:01004e0001b0
:01004f0003ad
:0100500001ae
:0100510001ad
:0100520002ab
:0100530002aa
:0100540001aa
:0100550000aa
:0100560003a6
:0100570003a5
:0100580000a7
:0100590000a6
:01005a0002a3
:01005b0001a3
:01005c0003a0
:01005d0001a1
:01005e0001a0
:01005f00019f
:01006000019e
:01006100039b
:01006200029b
:01006300009c
:01006400019a
:010065000298
:010066000099
:010067000098
:010068000196
:010069000096
:01006a000392
:01006b000391
:01006c000192
:01006d000290
:01006e000190
:01006f00018f
:01007000038c
:01007100008e
:01007200028b
:01007300018b
:010074000388
:010075000189
:010076000386
:010077000187
:010078000384
:010079000284
:01007a000382
:01007b000282
:01007c000182
:01007d000181
:01007e000180
:01007f000080
:01008000037c
:01008100027c
:01008200027b
:01008300027a
:010084000378
:010085000377
:010086000079
:010087000078
:010088000374
:010089000175
:01008a000273
:01008b000074
:01008c000271
:01008d00036f
:01008e000071
:01008f00026e
:01009000026d
:01009100026c
:01009200026b
:010093000369
:01009400006b
:010095000268
:010096000267
:010097000068
:010098000166
:010099000264
:01009a000164
:01009b000361
:01009c000063
:01009d000161
:01009e000061
:01009f00035d
:0100a000015e
:0100a100035b
:0100a200005d
:0100a300025a
:0100a4000259
:0100a5000159
:0100a6000257
:0100a7000256
:0100a8000255
:0100a9000155
:0100aa000154
:0100ab000054
:0100ac000251
:0100ad000052
:0100ae000051
:0100af00014f
:0100b000004f
:0100b100004e
:0100b200034a
:0100b3000349
:0100b4000249
:0100b5000248
:0100b6000148
:0100b7000345
:0100b8000245
:0100b9000343
:0100ba000144
:0100bb000341
:0100bc000340
:0100bd000141
:0100be00033e
:0100bf00013f
:0100c000013e
:0100c100033b
:0100c200033a
:0100c300023a
:0100c400013a
:0100c5000337
:0100c6000237
:0100c7000236
:0100c8000037
:0100c9000234
:0100ca000332
:0100cb000232
:0100cc000132
:0100cd000032
:0100ce000130
:0100cf00032d
:0100d000022d
:0100d100032b
:0100d200002d
:0100d3000329
:0100d400012a
:0100d5000327
:0100d6000326
:0100d7000127
:0100d8000027
:0100d9000323
:0100da000223
:0100db000024
:0100dc000221
:0100dd000121
:0100de00021f
:0100df000020
:0100e000021d
:0100e100031b
:0100e200001d
:0100e300021a
:0100e4000318
:0100e5000119
:0100e6000118
:0100e7000117
:0100e8000116
:0100e9000115
:0100ea000312
:0100eb000311
:0100ec000112
:0100ed000012
:0100ee00020f
:0100ef00010f
:0100f000000f
:0100f100000e
:0100f200000d
:0100f300010b
:0100f400000b
:0100f500000a
:0100f6000207
:0100f7000305
:0100f8000205
:0100f9000204
:0100fa000005
:0100fb000202
:0100fc000201
:0100fd0003ff
:0100fe000001
:0100ff0003fd
:00000001FF
